:020000040800F2
:1000000080470020CD0200081D04000815040008E8
:10001000190400087F030008F10700080000000031
:100020000000000000000000000000008102000845
:10003000830300080000000029020008F106000800
:10004000E7020008E7020008E7020008E7020008EC
:10005000E7020008E7020008E7020008E7020008DC
:10006000E7020008E7020008E7020008E7020008CC
:10007000E7020008E7020008E7020008E7020008BC
:10008000E7020008E7020008E7020008E7020008AC
:10009000E7020008E7020008E7020008E70200089C
:1000A000E7020008E7020008E7020008E70200088C
:1000B00095070008E7020008E7020008E7020008C9
:1000C000E7020008E7020008E7020008E70200086C
:1000D000E7020008E7020008E7020008E70200085C
:1000E000E7020008E7020008E7020008E70200084C
:1000F000E7020008E7020008E7020008E70200083C
:10010000E7020008E7020008E7020008E70200082B
:10011000E7020008E7020008E7020008E70200081B
:10012000E7020008E7020008E7020008E70200080B
:10013000E7020008E7020008E7020008E7020008FB
:10014000E7020008E7020008E7020008E7020008EB
:10015000E7020008E7020008E7020008E7020008DB
:10016000E7020008E7020008E7020008E7020008CB
:10017000E7020008E7020008E7020008E7020008BB
:10018000E7020008E702000800F002F800F03CF87F
:100190000AA090E8000C82448344AAF10107DA45E2
:1001A00001D100F031F8AFF2090EBAE80F0013F0F8
:1001B000010F18BFFB1A43F001031847E8080000BD
:1001C00008090000103A24BF78C878C1FAD852074D
:1001D00024BF30C830C144BF04680C6070470000C1
:1001E0000023002400250026103A28BF78C1FBD840
:1001F000520728BF30C148BF0B6070471FB500F0E1
:100200002BFC1FBD10B510BD00F083F81146FFF7A1
:10021000F5FF00F03FFB00F0A1F803B4FFF7F2FF99
:1002200003BC00F0A5F80000EFF309802049214A43
:10023000136813F0010F0AD11F4A136813F0010F5E
:1002400013D11E4B20E9F00F0A6843F822004FF04B
:10025000000414601A4C24680C60184B53F82400F6
:10026000B0E8F00F80F3098870474FF00004146085
:1002700014480068B0E8F00F80F309887047000068
:100280000C4B1B6813F0010F08D11EF0040F0CBFBC
:10029000EFF30880EFF309800B490847EFF309807B
:1002A00020E9F00F02490968044A42F8210070472A
:1002B0004C000020580000205C000020E04000209E
:1002C0005000002048000020E10500080948804750
:1002D00009480047FEE7FEE7FEE7FEE7FEE7FEE728
:1002E000FEE7FEE7FEE7FEE704480549054A064B40
:1002F000704700002D070008890100088041002098
:1003000080470020804300208043002070477047D2
:100310007047754600F028F8AE460500694653461A
:1003200020F00700854618B020B5FFF7DDFFBDE8D7
:1003300020404FF000064FF000074FF000084FF04C
:10034000000B21F00701AC46ACE8C009ACE8C009DD
:10035000ACE8C009ACE8C0098D4670470446AFF36D
:1003600000802046FFF759FF0048704720410020D9
:1003700001491820ABBEFEE726000200704700BF0F
:10038000FEE77047F0B50A4600210023002400BFB5
:100390003DE0012505FA01F3156805EA03049C42D6
:1003A00034D105684F000326BE40B543056015797A
:1003B0004E00B5400668354305601579012D02D021
:1003C0001579022D16D185684F000326BE40B5432E
:1003D000856055794E00B54086683543856045682F
:1003E00001268E40B5434560456896798E40B6B289
:1003F00035434560C5684F000326BE40B543C56020
:10040000D5794E00B540C6683543C560491C1029F2
:10041000BFD3F0BD00BFFEE700BFFEE7704700009E
:1004200010B5002807DA0A07140E054A00F00F037A
:100430001B1FD45403E00A07130E024A135410BDC5
:1004400018ED00E000E400E029B1064A126802431A
:10045000044B1A6004E0034A12688243014B1A609D
:10046000704700003038024010B5044601210948A9
:10047000094A1268815410380749096840F8214038
:1004800001200649086001DF00BF04480068012818
:10049000FBD010BD144100204C000020580000206B
:1004A000002000210E4A11600E4A51800E490F4A69
:1004B00011600F49126891634FF080710B4A126806
:1004C000D16309E000220749143141F820200122BC
:1004D00010310A54411C88B20428F3DB7047000035
:1004E0004C000020F0400020A040002048000020E8
:1004F0003109000810B51849184A126851F822103D
:1005000001F1400080F3098800BFFF216FF0010076
:10051000FFF786FF124C601EB0F1807F00D30FE022
:10052000601E4FF0E02148610F214FF0FF30FFF7D0
:1005300077FF00204FF0E02188610720086100BFAD
:10054000032080F3148800BFBFF36F8F054949680B
:100550004868804710BD0000E04000204C000020AB
:1005600040900200F0400020002100200BE0114AE2
:10057000525C032A05D10F4A121D22F81010421CAA
:1005800090B24A1C91B20429F1DB20B90022094B38
:10059000243B1A8002E0074A243A108000BF04235B
:1005A000044A121D22F81030421C90B20428F6DDD5
:1005B000704700001441002010B5002408E00748EF
:1005C000005D012802D1032104480155601C84B25A
:1005D000042CF4DBFFF7C8FF10BD0000144100201D
:1005E0000FB5026800924268019282680292C26866
:1005F0000392826912F8021C012900D100E000BFB9
:1006000000BF0FBD0CB50020019000903448006879
:1006100040F480303249086000BF3148006800F47F
:10062000003000900198401C0190009818B9019882
:10063000B0F5A04FF1D12A48006800F4003010B1A5
:100640000120009001E0002000900098012846D190
:1006500023484030006840F0805021494031086014
:100660002048006840F440401E4908601C4808309B
:1006700000681B49083108600846006840F40040E3
:1006800008600846006840F4A05008601648091F3A
:100690000860081F006840F08070091F086000BFF4
:1006A0000F48006800F000700028F9D040F2057093
:1006B0000E4908600A480830006820F00300084925
:1006C000083108600846006840F00200086000BF7A
:1006D00003480830006800F00C000828F8D10CBD71
:1006E000003802400070004008544007003C0240BF
:1006F00000B50A480068401C0849086000F04CF941
:100700000748006807490968884205D0064800681C
:1007100040F080500449086000BD00004400002003
:100720004C0000205000002004ED00E010B51548FA
:10073000006840F47000134908601348006840F0F6
:1007400001001149086000200F49083108600E4877
:1007500000680E4908400C4908600D48091D0860F2
:10076000081F006820F48020091F08600020064947
:100770000C310860FFF746FF4FF0006001498039F7
:10078000086010BD88ED00E000380240FFFFF6FE73
:100790001030002410B50121880700F020F801284E
:1007A0000FD10A4908700A48006808B9012000E022
:1007B0000020074908600748006800F0010005496B
:1007C00008600121880700F007F810BD41000020F3
:1007D0008C02424210ED00E0CA430282704702469A
:1007E0000020138A0B400BB1012000E0002070476D
:1007F00000BFFEE710B5044606480749098840F8DF
:10080000214005480088401C03490880204600F02C
:100810002BF810BDF4400020540000201CB501212D
:100820001020FFF711FE01214020FFF70DFE1820D8
:10083000009001208DF8040003208DF805000120B0
:100840008DF806008DF8070069460548FFF79AFD08
:100850004FF40070009069460248FFF793FD1CBDFD
:100860000010024000180240C16801F57C61028955
:10087000074B43F82210028953F822204168916304
:100880004FF08071028953F82220D1637047000035
:10089000E040002090B0224890E80E00C068CDE90A
:1008A0000D230C910F901E48103090E80E00C06888
:1008B000CDE9092308910B90194B2033D3E900208F
:1008C000D3E90213CDE90613CDE90420144B3033EC
:1008D000D3E901211868DB68CDE90213CDE90002F4
:1008E000FFF79CFF01200F4908600F49C1F89002F3
:1008F0000E4908600CA8FFF77DFF08A8FFF77AFFF4
:1009000004A8FFF777FF6846FFF774FFFFF7C8FDFD
:10091000FFF752FEFFF7EEFD00E000BEFDE700002E
:10092000640A00088C02424200004242A402434290
:1009300000BFFEE700BFFEE70BE00648006808B90D
:10094000012000E00020034908604FF48070FFF7A9
:100950008BFDF2E7A40243420BE00648006808B9A9
:10096000012000E00020034908604FF40070FFF709
:100970007BFDF2E7900242420BE00648006808B9AE
:10098000012000E00020034908604FF48060FFF779
:100990006BFDF2E78C02424230B50024002519E0DD
:1009A000284850F8240030B1264850F82400401E52
:1009B000244941F82400234850F8240040B9214834
:1009C0001030005D012803D103211E48103001556D
:1009D000601C84B2042CE3DBFFF7C6FD1948143811
:1009E000008818B901201849086023E01548143818
:1009F000018816480088401C814206DC002013490B
:100A0000088010481438058D14E01148006801284A
:100A100006D10C4814300D49098830F8115009E00E
:100A20000A480088401C0949088006481430098893
:100A300030F81150042D01DB00BE01E005480560CF
:100A400030BD0000044100205C0000205600002062
:100A500058000020500000204FF04070E1EE100AD6
:100A600070470000E0400020350900080000000049
:100A700060000020E040002039090008010001006A
:100A800060100020E0400020590900080200020028
:100A900060200020E04000207909000803000300E6
:100AA00060300020C40A0008000000206000000040
:100AB000C4010008240B000860000020204700004B
:100AC000E001000800040240000802400008024063
:100AD00000040240000C0240000802400200000036
:100AE00004000000040000000200000008000000F4
:100AF0000400000000480040005000400014014085
:100B000000000000000000000000000000000000E5
:100B100000000000010000000000000000000000D4
:040B200000000000D1
:040000050800018965
:00000001FF
